:100000000C9434000C9477000C9477000C947700D7
:100010000C9477000C9477000C9477000C94770084
:100020000C9477000C9477000C9477000C94770074
:100030000C9477000C9477000C9477000C94770064
:100040000C9477000C9477000C9477000C94770054
:100050000C9477000C9477000C9477000C94770044
:100060000C9477000C94770011241FBECFEFD8E0DA
:10007000DEBFCDBF0E9450000C943E00F894FFCF2D
:1000800084B5836A84BD84B58F7A84BD85B582606A
:1000900085BD85B5827F85BD16BC17BC18BC08958B
:1000A0000E9466000E9440000E945F006DE78DE79D
:0E00B0000E9474000E946D000E946D00FDCF42
:0E00BE0087B18F6087B988B1807F88B90895B7
:0E00CC008AB180668AB98BB180668BB90895BF
:0E00DA0088B1866088B988B1867F88B908959C
:0600E80087BD68BD08950C
:0400EE000C9400006E
:00000001FF
