:100000000C9434000C9475000C9475000C947500DD
:100010000C9475000C9475000C9475000C9475008C
:100020000C9475000C9475000C9475000C9475007C
:100030000C9475000C9475000C9475000C9475006C
:100040000C9475000C9475000C9475000C9475005C
:100050000C9475000C9475000C9475000C9475004C
:100060000C9475000C94750011241FBECFEFD8E0DE
:10007000DEBFCDBF0E9450000C943E00F894FFCF2D
:1000800084B5836A84BD84B58F7A84BD85B582606A
:1000900085BD85B5827F85BD16BC17BC18BC08958B
:1000A0000E9464000E9440000E945D0068E18DE7AC
:0A00B0000E9472000E946B00FDCF59
:0E00BA0087B18F6087B988B1807F88B90895BB
:0E00C8008AB180668AB98BB180668BB90895C3
:0E00D60088B1866088B988B1867F88B90895A0
:0600E40087BD68BD089510
:0400EA000C94000072
:00000001FF
